{
  "contractName": "englishAuction",
  "abi": [
    {
      "constant": true,
      "inputs": [],
      "name": "getBiddingLength",
      "outputs": [
        {
          "name": "",
          "type": "uint256"
        }
      ],
      "payable": false,
      "stateMutability": "view",
      "type": "function"
    },
    {
      "constant": true,
      "inputs": [],
      "name": "getAuctionLength",
      "outputs": [
        {
          "name": "",
          "type": "uint256"
        }
      ],
      "payable": false,
      "stateMutability": "view",
      "type": "function"
    },
    {
      "constant": false,
      "inputs": [],
      "name": "wait",
      "outputs": [
        {
          "name": "",
          "type": "uint8"
        }
      ],
      "payable": false,
      "stateMutability": "nonpayable",
      "type": "function"
    },
    {
      "constant": true,
      "inputs": [],
      "name": "getPostBiddingLength",
      "outputs": [
        {
          "name": "",
          "type": "uint256"
        }
      ],
      "payable": false,
      "stateMutability": "view",
      "type": "function"
    },
    {
      "constant": true,
      "inputs": [],
      "name": "getPreBiddingLength",
      "outputs": [
        {
          "name": "",
          "type": "uint256"
        }
      ],
      "payable": false,
      "stateMutability": "view",
      "type": "function"
    },
    {
      "constant": true,
      "inputs": [],
      "name": "getCurrentPhase",
      "outputs": [
        {
          "name": "",
          "type": "uint8"
        }
      ],
      "payable": false,
      "stateMutability": "view",
      "type": "function"
    },
    {
      "constant": true,
      "inputs": [],
      "name": "getAuctioneer",
      "outputs": [
        {
          "name": "",
          "type": "address"
        }
      ],
      "payable": false,
      "stateMutability": "view",
      "type": "function"
    },
    {
      "inputs": [
        {
          "name": "_reservePrice",
          "type": "uint256"
        },
        {
          "name": "_buyOutPrice",
          "type": "uint256"
        },
        {
          "name": "_unchallegedLength",
          "type": "uint256"
        },
        {
          "name": "_increment",
          "type": "uint256"
        }
      ],
      "payable": false,
      "stateMutability": "nonpayable",
      "type": "constructor"
    },
    {
      "anonymous": false,
      "inputs": [
        {
          "indexed": false,
          "name": "bidder",
          "type": "address"
        },
        {
          "indexed": false,
          "name": "amount",
          "type": "uint256"
        }
      ],
      "name": "buyOutEvent",
      "type": "event"
    },
    {
      "anonymous": false,
      "inputs": [
        {
          "indexed": false,
          "name": "str",
          "type": "string"
        }
      ],
      "name": "logEvent",
      "type": "event"
    },
    {
      "anonymous": false,
      "inputs": [
        {
          "indexed": false,
          "name": "bidder",
          "type": "address"
        },
        {
          "indexed": false,
          "name": "amount",
          "type": "uint256"
        }
      ],
      "name": "newHighestBidEvent",
      "type": "event"
    },
    {
      "anonymous": false,
      "inputs": [
        {
          "indexed": false,
          "name": "bidder",
          "type": "address"
        },
        {
          "indexed": false,
          "name": "amount",
          "type": "uint256"
        }
      ],
      "name": "finalizeEvent",
      "type": "event"
    },
    {
      "anonymous": false,
      "inputs": [
        {
          "indexed": false,
          "name": "bidder",
          "type": "address"
        },
        {
          "indexed": false,
          "name": "amount",
          "type": "uint256"
        }
      ],
      "name": "refundEvent",
      "type": "event"
    },
    {
      "anonymous": false,
      "inputs": [],
      "name": "noWinnerEvent",
      "type": "event"
    },
    {
      "constant": false,
      "inputs": [],
      "name": "buyOut",
      "outputs": [],
      "payable": true,
      "stateMutability": "payable",
      "type": "function"
    },
    {
      "constant": false,
      "inputs": [],
      "name": "bid",
      "outputs": [],
      "payable": true,
      "stateMutability": "payable",
      "type": "function"
    },
    {
      "constant": false,
      "inputs": [],
      "name": "finalize",
      "outputs": [],
      "payable": false,
      "stateMutability": "nonpayable",
      "type": "function"
    }
  ],
  "bytecode": "0x608060405234801561001057600080fd5b506040516080806111f98339810180604052608081101561003057600080fd5b81019080805190602001909291908051906020019092919080519060200190929190805190602001909291905050508360008360008082116100bd576040517f08c379a000000000000000000000000000000000000000000000000000000000815260040180806020018281038252603e8152602001806111bb603e913960400191505060405180910390fd5b336000806101000a81548173ffffffffffffffffffffffffffffffffffffffff021916908373ffffffffffffffffffffffffffffffffffffffff16021790555043600681905550826007819055508160088190555080600981905550836005819055505050505082600a8190555080600b8190555081600c8190555060055460038190555050505050611066806101556000396000f3fe6080604052600436106100915760003560e01c80636654bd2a116100595780636654bd2a14610146578063912e4a9d14610171578063a11f161a1461019c578063a3a40ea5146101a6578063f94a507d146101df57610091565b8063064c8086146100965780631998aeef146100c15780633fdd1fef146100cb5780634bb278f3146100f657806364bd70131461010d575b600080fd5b3480156100a257600080fd5b506100ab610236565b6040518082815260200191505060405180910390f35b6100c9610240565b005b3480156100d757600080fd5b506100e06104fe565b6040518082815260200191505060405180910390f35b34801561010257600080fd5b5061010b610510565b005b34801561011957600080fd5b506101226106ac565b6040518082600381111561013257fe5b60ff16815260200191505060405180910390f35b34801561015257600080fd5b5061015b610723565b6040518082815260200191505060405180910390f35b34801561017d57600080fd5b5061018661072d565b6040518082815260200191505060405180910390f35b6101a4610737565b005b3480156101b257600080fd5b506101bb6108e5565b604051808260038111156101cb57fe5b60ff16815260200191505060405180910390f35b3480156101eb57600080fd5b506101f461094e565b604051808273ffffffffffffffffffffffffffffffffffffffff1673ffffffffffffffffffffffffffffffffffffffff16815260200191505060405180910390f35b6000600854905090565b610248610977565b6000339050600034905060035481116102c9576040517f08c379a000000000000000000000000000000000000000000000000000000000815260040180806020018281038252601f8152602001807f546865726520697320616e206869676865722062696420616c7265616479210081525060200191505060405180910390fd5b600b5460035401811015610328576040517f08c379a000000000000000000000000000000000000000000000000000000000815260040180806020018281038252602b815260200180610fec602b913960400191505060405180910390fd5b600160065443030160085403600c54036008600082825401925050819055506000600a541461035a576000600a819055505b600073ffffffffffffffffffffffffffffffffffffffff16600460009054906101000a900473ffffffffffffffffffffffffffffffffffffffff1673ffffffffffffffffffffffffffffffffffffffff16146103df576103de600460009054906101000a900473ffffffffffffffffffffffffffffffffffffffff16600354610ac1565b5b8060038190555081600460006101000a81548173ffffffffffffffffffffffffffffffffffffffff021916908373ffffffffffffffffffffffffffffffffffffffff16021790555060035460016000600460009054906101000a900473ffffffffffffffffffffffffffffffffffffffff1673ffffffffffffffffffffffffffffffffffffffff1673ffffffffffffffffffffffffffffffffffffffff168152602001908152602001600020819055507f9500a4002f01d2f36258fa0c10330ac3bb6a341eed6797ec22bc40c0ad6533588282604051808373ffffffffffffffffffffffffffffffffffffffff1673ffffffffffffffffffffffffffffffffffffffff1681526020018281526020019250505060405180910390a15050565b60006009546008546007540101905090565b610518610cfc565b600073ffffffffffffffffffffffffffffffffffffffff16600460009054906101000a900473ffffffffffffffffffffffffffffffffffffffff1673ffffffffffffffffffffffffffffffffffffffff161415801561057a5750600060035414155b1561067d576000809054906101000a900473ffffffffffffffffffffffffffffffffffffffff1673ffffffffffffffffffffffffffffffffffffffff166108fc6003549081150290604051600060405180830381858888f193505050501580156105e8573d6000803e3d6000fd5b507fd67ac51f96ac22ee5b00a109f663d8ac038c7181b7c55c12c3490b8d9bd8d709600460009054906101000a900473ffffffffffffffffffffffffffffffffffffffff16600354604051808373ffffffffffffffffffffffffffffffffffffffff1673ffffffffffffffffffffffffffffffffffffffff1681526020018281526020019250505060405180910390a16106aa565b7f7cca9a832bf654537bcd8096e81323885d7ee298515dbc0c171173db7e6b047060405160405180910390a15b565b60007ff302f1a25d304bd7348ee6fc1e2090f79ff9c7c809558b88c7876b528b66dd486040518080602001828103825260048152602001807f776169740000000000000000000000000000000000000000000000000000000081525060200191505060405180910390a161071e6108e5565b905090565b6000600954905090565b6000600754905090565b61073f610977565b6000600a54141561079b576040517f08c379a0000000000000000000000000000000000000000000000000000000008152600401808060200182810382526030815260200180610f386030913960400191505060405180910390fd5b6000349050600a548110156107fb576040517f08c379a0000000000000000000000000000000000000000000000000000000008152600401808060200182810382526025815260200180610fc76025913960400191505060405180910390fd5b8060038190555033600460006101000a81548173ffffffffffffffffffffffffffffffffffffffff021916908373ffffffffffffffffffffffffffffffffffffffff160217905550600060078190555060006008819055507f13186fd4320e30fe3f7d92d7f8e4c4661c610a89696aa8d3f2fd043efd7c2cad600460009054906101000a900473ffffffffffffffffffffffffffffffffffffffff16600354604051808373ffffffffffffffffffffffffffffffffffffffff1673ffffffffffffffffffffffffffffffffffffffff1681526020018281526020019250505060405180910390a150565b60008043905080600160075460065401031061090557600091505061094b565b8060016008546007546006540101031061092357600191505061094b565b806001600954600854600754600654010101031061094557600291505061094b565b60039150505b90565b60008060009054906101000a900473ffffffffffffffffffffffffffffffffffffffff16905090565b60006109816108e5565b90506000600381111561099057fe5b81600381111561099c57fe5b1415610a10576040517f08c379a000000000000000000000000000000000000000000000000000000000815260040180806020018281038252601b8152602001807f4974206973206e6f742062696464696e672074696d652079657421000000000081525060200191505060405180910390fd5b60026003811115610a1d57fe5b816003811115610a2957fe5b141580610a4c5750600380811115610a3d57fe5b816003811115610a4957fe5b14155b610abe576040517f08c379a00000000000000000000000000000000000000000000000000000000081526004018080602001828103825260168152602001807f41756374696f6e20616c726561647920656e646564210000000000000000000081525060200191505060405180910390fd5b50565b60008111610b1a576040517f08c379a00000000000000000000000000000000000000000000000000000000081526004018080602001828103825260248152602001806110176024913960400191505060405180910390fd5b600160008373ffffffffffffffffffffffffffffffffffffffff1673ffffffffffffffffffffffffffffffffffffffff16815260200190815260200160002054811115610bb2576040517f08c379a0000000000000000000000000000000000000000000000000000000008152600401808060200182810382526023815260200180610f686023913960400191505060405180910390fd5b6000600160008473ffffffffffffffffffffffffffffffffffffffff1673ffffffffffffffffffffffffffffffffffffffff1681526020019081526020016000205490506000811115610cf7576000600160008573ffffffffffffffffffffffffffffffffffffffff1673ffffffffffffffffffffffffffffffffffffffff168152602001908152602001600020819055508273ffffffffffffffffffffffffffffffffffffffff166108fc839081150290604051600060405180830381858888f19350505050158015610c8a573d6000803e3d6000fd5b507fcb1ed30c8a84603cc9cd35d8ffd0eb9298b137e6ade703816a297932f375f51d8383604051808373ffffffffffffffffffffffffffffffffffffffff1673ffffffffffffffffffffffffffffffffffffffff1681526020018281526020019250505060405180910390a15b505050565b600380811115610d0857fe5b610d106108e5565b6003811115610d1b57fe5b14610d8e576040517f08c379a00000000000000000000000000000000000000000000000000000000081526004018080602001828103825260188152602001807f41756374696f6e206861736e277420656e64656420796574000000000000000081525060200191505060405180910390fd5b600260009054906101000a900460ff1615610df4576040517f08c379a000000000000000000000000000000000000000000000000000000000815260040180806020018281038252603c815260200180610f8b603c913960400191505060405180910390fd5b600460009054906101000a900473ffffffffffffffffffffffffffffffffffffffff1673ffffffffffffffffffffffffffffffffffffffff163373ffffffffffffffffffffffffffffffffffffffff161480610e9c57506000809054906101000a900473ffffffffffffffffffffffffffffffffffffffff1673ffffffffffffffffffffffffffffffffffffffff163373ffffffffffffffffffffffffffffffffffffffff16145b610ef1576040517f08c379a0000000000000000000000000000000000000000000000000000000008152600401808060200182810382526029815260200180610f0f6029913960400191505060405180910390fd5b6001600260006101000a81548160ff02191690831515021790555056fe596f7520617265206e6f74207468652077696e6e6572206f72207468652061756374696f6e656572214e4f20627579206f7574207072696365206f7220736f6d656f6e6520656c736520616c72656164792062696464656421796f7520646f6e2774206861766520746f20726566756e642074686174206d7563682141756374696f6e2068617320656e64656420616e6420746865207061796d656e742068617320616c7265616479206265656e2066696e616c697a6564596f757220616d6f756e74206973206e6f7420656e6f75676820746f20627579206f757421596f75206861766520746f207061792061206d696e696d756d20696e6372656d656e7420616d6f756e7421616d6f756e74206e6565647320746f20626520686967686572207468616e207a65726f21a165627a7a72305820dfd053c4a8913cdb28a77e54b1fd0a960e7ecbb03418f5e3a5d2a7c59d7f69ef0029596f75206d7573742073706563696679207468652062696464696e672074696d6528696e20626c6f636b2920616e64207265736572766520707269636521",
  "source": "pragma solidity ^0.5.1;\nimport \"./smartAuction.sol\";\n\n/* \npre bidding phase: grace period, length = 30\nbidding phase: buyout then bids, length depends on the unchalleged time\npost bidding phase: not used, length = 0\nend phase: finalize\n*/\ncontract englishAuction is smartAuction{\n    uint buyOutPrice; //If someone pays this amount before any bid in the bidding time, the good is sold immediately without starting the auction\n    uint increment; //The minimum amount you have to add to current highestBid in order to be the winning bidder\n    uint unchallegedLength; //Number of blocks (excluding the current one) a bid must be unchallenged before it is considered the winning bid\n    \n    event buyOutEvent(address bidder, uint amount); //notify that someone buy out the good\n    \n    constructor(uint _reservePrice, uint _buyOutPrice, uint _unchallegedLength, uint _increment) \n                    smartAuction( _reservePrice, 0, _unchallegedLength, 0) public {\n        buyOutPrice = _buyOutPrice;\n        increment = _increment; \n        unchallegedLength = _unchallegedLength;\n        \n        winningBid = reservePrice;\n    }\n    \n    function buyOut() payable public {\n        super.bidConditions(); //it is like a bid that always win\n        \n        require(buyOutPrice != 0, \"NO buy out price or someone else already bidded!\");\n        uint amount = msg.value;\n        require(amount >= buyOutPrice, \"Your amount is not enough to buy out!\");\n        \n        //pay!\n        winningBid = amount;\n        winningBidder = msg.sender;\n        \n        //The auction can be considered over, because the buyout condition is satisfied\n        preBiddingLength=0;\n        biddingLength=0;\n        \n        emit buyOutEvent(winningBidder, winningBid);\n    }\n    \n    function bid() payable public{\n        super.bidConditions();\n        \n        address payable bidder = msg.sender;\n        uint amount = msg.value;\n        require(amount > winningBid, \"There is an higher bid already!\");\n        require(amount >= winningBid + increment, \"You have to pay a minimum increment amount!\");\n        \n        biddingLength += unchallegedLength - (biddingLength - ((block.number - creationBlock) + 1)); //increment bidding time in order to have the same unchallegedLength for each bid\n        \n        //no more chances of buying out the good\n        if(buyOutPrice != 0){\n            buyOutPrice = 0;\n        }\n        \n        //if exists, refund the previous winning bidder\n        if(winningBidder != address(0)){\n            refundTo(winningBidder, winningBid);\n        }\n        \n        winningBid = amount;\n        winningBidder = bidder;\n        bidders[winningBidder] = winningBid;\n        emit newHighestBidEvent(bidder, amount);\n    }\n    \n    function finalize() public{\n        super.finalizeConditions();\n        //if you are here, no re-entrancy problem, because finalized has been set to true!\n        \n        if(winningBidder != address(0) && winningBid != 0){\n            auctioneer.transfer(winningBid);\n            emit finalizeEvent(winningBidder, winningBid);\n        }\n        else emit noWinnerEvent();\n    }\n}\n",
  "sourcePath": "/home/remo/Dropbox/Programming/html-js/smartAuction/dApp/contracts/englishAuction.sol",
  "compiler": {
    "name": "solc",
    "version": "0.5.8+commit.23d335f2.Emscripten.clang"
  },
  "schemaVersion": "3.0.11",
  "updatedAt": "2019-07-02T18:02:44.532Z",
  "devdoc": {
    "methods": {}
  },
  "userdoc": {
    "methods": {}
  }
}