{
  "contractName": "smartAuctionFactory",
  "abi": [
    {
      "constant": true,
      "inputs": [
        {
          "name": "",
          "type": "uint256"
        }
      ],
      "name": "auctions",
      "outputs": [
        {
          "name": "",
          "type": "address"
        }
      ],
      "payable": false,
      "stateMutability": "view",
      "type": "function"
    },
    {
      "inputs": [],
      "payable": false,
      "stateMutability": "nonpayable",
      "type": "constructor"
    },
    {
      "anonymous": false,
      "inputs": [
        {
          "indexed": false,
          "name": "addr",
          "type": "address"
        }
      ],
      "name": "newEnglishAuctionEvent",
      "type": "event"
    },
    {
      "anonymous": false,
      "inputs": [
        {
          "indexed": false,
          "name": "addr",
          "type": "address"
        }
      ],
      "name": "newVickeryAuctionEvent",
      "type": "event"
    },
    {
      "constant": false,
      "inputs": [
        {
          "name": "_reservePrice",
          "type": "uint256"
        },
        {
          "name": "_buyOutPrice",
          "type": "uint256"
        },
        {
          "name": "_unchallegedLength",
          "type": "uint256"
        },
        {
          "name": "_increment",
          "type": "uint256"
        }
      ],
      "name": "deployEnglishAuction",
      "outputs": [
        {
          "name": "",
          "type": "address"
        }
      ],
      "payable": false,
      "stateMutability": "nonpayable",
      "type": "function"
    },
    {
      "constant": false,
      "inputs": [
        {
          "name": "_reservePrice",
          "type": "uint256"
        },
        {
          "name": "_deposit",
          "type": "uint256"
        },
        {
          "name": "_bidCommitLength",
          "type": "uint256"
        },
        {
          "name": "_bidWithdrawLength",
          "type": "uint256"
        },
        {
          "name": "_bidOpeningLength",
          "type": "uint256"
        }
      ],
      "name": "deployVickeryAuction",
      "outputs": [
        {
          "name": "",
          "type": "address"
        }
      ],
      "payable": false,
      "stateMutability": "nonpayable",
      "type": "function"
    },
    {
      "constant": true,
      "inputs": [],
      "name": "getAuctions",
      "outputs": [
        {
          "name": "",
          "type": "address[]"
        }
      ],
      "payable": false,
      "stateMutability": "view",
      "type": "function"
    }
  ],
  "bytecode": "0x608060405234801561001057600080fd5b5033600160006101000a81548173ffffffffffffffffffffffffffffffffffffffff021916908373ffffffffffffffffffffffffffffffffffffffff160217905550612f72806100616000396000f3fe608060405234801561001057600080fd5b506004361061004c5760003560e01c806346b29ee114610051578063571a26a0146100e7578063a330330214610155578063d7c06919146101e1575b600080fd5b6100a5600480360360a081101561006757600080fd5b810190808035906020019092919080359060200190929190803590602001909291908035906020019092919080359060200190929190505050610240565b604051808273ffffffffffffffffffffffffffffffffffffffff1673ffffffffffffffffffffffffffffffffffffffff16815260200191505060405180910390f35b610113600480360360208110156100fd57600080fd5b8101908080359060200190929190505050610375565b604051808273ffffffffffffffffffffffffffffffffffffffff1673ffffffffffffffffffffffffffffffffffffffff16815260200191505060405180910390f35b61019f6004803603608081101561016b57600080fd5b81019080803590602001909291908035906020019092919080359060200190929190803590602001909291905050506103b1565b604051808273ffffffffffffffffffffffffffffffffffffffff1673ffffffffffffffffffffffffffffffffffffffff16815260200191505060405180910390f35b6101e96104dd565b6040518080602001828103825283818151815260200191508051906020019060200280838360005b8381101561022c578082015181840152602081019050610211565b505050509050019250505060405180910390f35b60008086868686866040516102549061056b565b8086815260200185815260200184815260200183815260200182815260200195505050505050604051809103906000f080158015610296573d6000803e3d6000fd5b509050600081905060008190806001815401808255809150509060018203906000526020600020016000909192909190916101000a81548173ffffffffffffffffffffffffffffffffffffffff021916908373ffffffffffffffffffffffffffffffffffffffff160217905550507f9c1d0b4a89bc629c76b0e67d11896397c016c3c7dfeb38ae9d8857896777594681604051808273ffffffffffffffffffffffffffffffffffffffff1673ffffffffffffffffffffffffffffffffffffffff16815260200191505060405180910390a1809250505095945050505050565b6000818154811061038257fe5b906000526020600020016000915054906101000a900473ffffffffffffffffffffffffffffffffffffffff1681565b600080858585856040516103c490610578565b80858152602001848152602001838152602001828152602001945050505050604051809103906000f0801580156103ff573d6000803e3d6000fd5b509050600081905060008190806001815401808255809150509060018203906000526020600020016000909192909190916101000a81548173ffffffffffffffffffffffffffffffffffffffff021916908373ffffffffffffffffffffffffffffffffffffffff160217905550507f89c2071d9fd4eb44012e6d6412a8e21f4b329bf4f1a4cdd3ed08958bb1764f3d81604051808273ffffffffffffffffffffffffffffffffffffffff1673ffffffffffffffffffffffffffffffffffffffff16815260200191505060405180910390a18092505050949350505050565b6060600080548060200260200160405190810160405280929190818152602001828054801561056157602002820191906000526020600020905b8160009054906101000a900473ffffffffffffffffffffffffffffffffffffffff1673ffffffffffffffffffffffffffffffffffffffff1681526020019060010190808311610517575b5050505050905090565b6117c88061058683390190565b6111f980611d4e8339019056fe608060405234801561001057600080fd5b5060405160a0806117c8833981018060405260a081101561003057600080fd5b81019080805190602001909291908051906020019092919080519060200190929190805190602001909291908051906020019092919050505084600083850183600082116100c9576040517f08c379a000000000000000000000000000000000000000000000000000000000815260040180806020018281038252603e81526020018061178a603e913960400191505060405180910390fd5b336000806101000a81548173ffffffffffffffffffffffffffffffffffffffff021916908373ffffffffffffffffffffffffffffffffffffffff16021790555043600681905550826007819055508160088190555080600981905550836005819055505050505083600a8190555082600b8190555081600c8190555080600d81905550505050505061162a806101606000396000f3fe6080604052600436106100a75760003560e01c80636654bd2a116100645780636654bd2a146101a7578063912e4a9d146101d2578063957bb1e0146101fd578063a3a40ea51461022b578063c72efcf714610264578063f94a507d14610298576100a7565b8063064c8086146100ac578063395e707f146100d75780633ccfd60b146101155780633fdd1fef1461012c5780634bb278f31461015757806364bd70131461016e575b600080fd5b3480156100b857600080fd5b506100c16102ef565b6040518082815260200191505060405180910390f35b610113600480360360408110156100ed57600080fd5b81019080803563ffffffff169060200190929190803590602001909291905050506102f9565b005b34801561012157600080fd5b5061012a610340565b005b34801561013857600080fd5b506101416104dc565b6040518082815260200191505060405180910390f35b34801561016357600080fd5b5061016c6104ee565b005b34801561017a57600080fd5b5061018361077a565b6040518082600381111561019357fe5b60ff16815260200191505060405180910390f35b3480156101b357600080fd5b506101bc6107f1565b6040518082815260200191505060405180910390f35b3480156101de57600080fd5b506101e76107fb565b6040518082815260200191505060405180910390f35b6102296004803603602081101561021357600080fd5b8101908080359060200190929190505050610805565b005b34801561023757600080fd5b50610240610a1c565b6040518082600381111561025057fe5b60ff16815260200191505060405180910390f35b6102966004803603602081101561027a57600080fd5b81019080803563ffffffff169060200190929190505050610a85565b005b3480156102a457600080fd5b506102ad610ef8565b604051808273ffffffffffffffffffffffffffffffffffffffff1673ffffffffffffffffffffffffffffffffffffffff16815260200191505060405180910390f35b6000600854905090565b61033c8282604051602001808363ffffffff1663ffffffff1681526020018281526020019250505060405160208183030381529060405280519060200120610805565b5050565b610348610f21565b436001600b54600754600654010103106103ad576040517f08c379a00000000000000000000000000000000000000000000000000000000081526004018080602001828103825260218152602001806115ba6021913960400191505060405180910390fd5b436001600c54600b54600754600654010101031015610434576040517f08c379a00000000000000000000000000000000000000000000000000000000081526004018080602001828103825260208152602001807f4974206973206e6f742077697468647261772074696d6520616e796d6f72652181525060200191505060405180910390fd5b600033905060006002600160008473ffffffffffffffffffffffffffffffffffffffff1673ffffffffffffffffffffffffffffffffffffffff168152602001908152602001600020548161048457fe5b0490506000801b600f60008473ffffffffffffffffffffffffffffffffffffffff1673ffffffffffffffffffffffffffffffffffffffff168152602001908152602001600020819055506104d8828261106b565b5050565b60006009546008546007540101905090565b6104f66112a6565b60055460035410610712576000600e54141561051657600554600e819055505b6000809054906101000a900473ffffffffffffffffffffffffffffffffffffffff1673ffffffffffffffffffffffffffffffffffffffff166108fc600e549081150290604051600060405180830381858888f1935050505015801561057f573d6000803e3d6000fd5b50600e5460016000600460009054906101000a900473ffffffffffffffffffffffffffffffffffffffff1673ffffffffffffffffffffffffffffffffffffffff1673ffffffffffffffffffffffffffffffffffffffff1681526020019081526020016000206000828254039250508190555061067e600460009054906101000a900473ffffffffffffffffffffffffffffffffffffffff1660016000600460009054906101000a900473ffffffffffffffffffffffffffffffffffffffff1673ffffffffffffffffffffffffffffffffffffffff1673ffffffffffffffffffffffffffffffffffffffff1681526020019081526020016000205461106b565b7fd67ac51f96ac22ee5b00a109f663d8ac038c7181b7c55c12c3490b8d9bd8d709600460009054906101000a900473ffffffffffffffffffffffffffffffffffffffff16600e54604051808373ffffffffffffffffffffffffffffffffffffffff1673ffffffffffffffffffffffffffffffffffffffff1681526020018281526020019250505060405180910390a1610778565b7f7cca9a832bf654537bcd8096e81323885d7ee298515dbc0c171173db7e6b047060405160405180910390a160006003541461077757610776600460009054906101000a900473ffffffffffffffffffffffffffffffffffffffff1660035461106b565b5b5b565b60007ff302f1a25d304bd7348ee6fc1e2090f79ff9c7c809558b88c7876b528b66dd486040518080602001828103825260048152602001807f776169740000000000000000000000000000000000000000000000000000000081525060200191505060405180910390a16107ec610a1c565b905090565b6000600954905090565b6000600754905090565b61080d610f21565b436001600b546007546006540101031015610873576040517f08c379a00000000000000000000000000000000000000000000000000000000081526004018080602001828103825260278152602001806115936027913960400191505060405180910390fd5b600034905060003390506000801b600f60008373ffffffffffffffffffffffffffffffffffffffff1673ffffffffffffffffffffffffffffffffffffffff1681526020019081526020016000205414610917576040517f08c379a00000000000000000000000000000000000000000000000000000000081526004018080602001828103825260248152602001806115056024913960400191505060405180910390fd5b600a5482101561098f576040517f08c379a000000000000000000000000000000000000000000000000000000000815260040180806020018281038252601d8152602001807f4465706f73697420616d6f756e74206973206e6f7420656e6f7567682100000081525060200191505060405180910390fd5b81600160008373ffffffffffffffffffffffffffffffffffffffff1673ffffffffffffffffffffffffffffffffffffffff1681526020019081526020016000208190555082600f60008373ffffffffffffffffffffffffffffffffffffffff1673ffffffffffffffffffffffffffffffffffffffff16815260200190815260200160002081905550505050565b600080439050806001600754600654010310610a3c576000915050610a82565b80600160085460075460065401010310610a5a576001915050610a82565b8060016009546008546007546006540101010310610a7c576002915050610a82565b60039150505b90565b60026003811115610a9257fe5b610a9a610a1c565b6003811115610aa557fe5b14610b18576040517f08c379a00000000000000000000000000000000000000000000000000000000081526004018080602001828103825260198152602001807f4974206973206e6f742072657665616c2074696d65207965740000000000000081525060200191505060405180910390fd5b6000801b600f60003373ffffffffffffffffffffffffffffffffffffffff1673ffffffffffffffffffffffffffffffffffffffff168152602001908152602001600020541415610bd0576040517f08c379a000000000000000000000000000000000000000000000000000000000815260040180806020018281038252601f8152602001807f596f75206469646e27742062696420696e20746869732061756374696f6e210081525060200191505060405180910390fd5b6000349050600033905060008383604051602001808363ffffffff1663ffffffff16815260200182815260200192505050604051602081830303815290604052805190602001209050600f60008373ffffffffffffffffffffffffffffffffffffffff1673ffffffffffffffffffffffffffffffffffffffff168152602001908152602001600020548114610cb0576040517f08c379a000000000000000000000000000000000000000000000000000000000815260040180806020018281038252602e815260200180611529602e913960400191505060405180910390fd5b610cf982600160008573ffffffffffffffffffffffffffffffffffffffff1673ffffffffffffffffffffffffffffffffffffffff1681526020019081526020016000205461106b565b82600160008473ffffffffffffffffffffffffffffffffffffffff1673ffffffffffffffffffffffffffffffffffffffff16815260200190815260200160002060008282540192505081905550600354831115610e9657600073ffffffffffffffffffffffffffffffffffffffff16600460009054906101000a900473ffffffffffffffffffffffffffffffffffffffff1673ffffffffffffffffffffffffffffffffffffffff1614610dde57610dd4600460009054906101000a900473ffffffffffffffffffffffffffffffffffffffff1660035461106b565b600354600e819055505b8260038190555081600460006101000a81548173ffffffffffffffffffffffffffffffffffffffff021916908373ffffffffffffffffffffffffffffffffffffffff1602179055507f9500a4002f01d2f36258fa0c10330ac3bb6a341eed6797ec22bc40c0ad6533588284604051808373ffffffffffffffffffffffffffffffffffffffff1673ffffffffffffffffffffffffffffffffffffffff1681526020018281526020019250505060405180910390a1610ef2565b600e54831115610ea85782600e819055505b610ef182600160008573ffffffffffffffffffffffffffffffffffffffff1673ffffffffffffffffffffffffffffffffffffffff1681526020019081526020016000205461106b565b5b50505050565b60008060009054906101000a900473ffffffffffffffffffffffffffffffffffffffff16905090565b6000610f2b610a1c565b905060006003811115610f3a57fe5b816003811115610f4657fe5b1415610fba576040517f08c379a000000000000000000000000000000000000000000000000000000000815260040180806020018281038252601b8152602001807f4974206973206e6f742062696464696e672074696d652079657421000000000081525060200191505060405180910390fd5b60026003811115610fc757fe5b816003811115610fd357fe5b141580610ff65750600380811115610fe757fe5b816003811115610ff357fe5b14155b611068576040517f08c379a00000000000000000000000000000000000000000000000000000000081526004018080602001828103825260168152602001807f41756374696f6e20616c726561647920656e646564210000000000000000000081525060200191505060405180910390fd5b50565b600081116110c4576040517f08c379a00000000000000000000000000000000000000000000000000000000081526004018080602001828103825260248152602001806115db6024913960400191505060405180910390fd5b600160008373ffffffffffffffffffffffffffffffffffffffff1673ffffffffffffffffffffffffffffffffffffffff1681526020019081526020016000205481111561115c576040517f08c379a00000000000000000000000000000000000000000000000000000000081526004018080602001828103825260238152602001806114e26023913960400191505060405180910390fd5b6000600160008473ffffffffffffffffffffffffffffffffffffffff1673ffffffffffffffffffffffffffffffffffffffff16815260200190815260200160002054905060008111156112a1576000600160008573ffffffffffffffffffffffffffffffffffffffff1673ffffffffffffffffffffffffffffffffffffffff168152602001908152602001600020819055508273ffffffffffffffffffffffffffffffffffffffff166108fc839081150290604051600060405180830381858888f19350505050158015611234573d6000803e3d6000fd5b507fcb1ed30c8a84603cc9cd35d8ffd0eb9298b137e6ade703816a297932f375f51d8383604051808373ffffffffffffffffffffffffffffffffffffffff1673ffffffffffffffffffffffffffffffffffffffff1681526020018281526020019250505060405180910390a15b505050565b6003808111156112b257fe5b6112ba610a1c565b60038111156112c557fe5b14611338576040517f08c379a00000000000000000000000000000000000000000000000000000000081526004018080602001828103825260188152602001807f41756374696f6e206861736e277420656e64656420796574000000000000000081525060200191505060405180910390fd5b600260009054906101000a900460ff161561139e576040517f08c379a000000000000000000000000000000000000000000000000000000000815260040180806020018281038252603c815260200180611557603c913960400191505060405180910390fd5b600460009054906101000a900473ffffffffffffffffffffffffffffffffffffffff1673ffffffffffffffffffffffffffffffffffffffff163373ffffffffffffffffffffffffffffffffffffffff16148061144657506000809054906101000a900473ffffffffffffffffffffffffffffffffffffffff1673ffffffffffffffffffffffffffffffffffffffff163373ffffffffffffffffffffffffffffffffffffffff16145b61149b576040517f08c379a00000000000000000000000000000000000000000000000000000000081526004018080602001828103825260298152602001806114b96029913960400191505060405180910390fd5b6001600260006101000a81548160ff02191690831515021790555056fe596f7520617265206e6f74207468652077696e6e6572206f72207468652061756374696f6e65657221796f7520646f6e2774206861766520746f20726566756e642074686174206d75636821596f75206861766520616c7265616479206d616465206120636f6d6d6974746d656e742154686520616d6f756e7420646f65736e2774206d6174636820776974682074686520636f6d6d6974746d656e742141756374696f6e2068617320656e64656420616e6420746865207061796d656e742068617320616c7265616479206265656e2066696e616c697a65644974206973206e6f742062696420636f6d6d6974746d656e742074696d6520616e796d6f7265214974206973207374696c6c2062696420636f6d6d6974746d656e742074696d6521616d6f756e74206e6565647320746f20626520686967686572207468616e207a65726f21a165627a7a7230582026c9334288435f00563eba4d66bc0c0f083b45e599f4e0202256e0dd7954ee740029596f75206d7573742073706563696679207468652062696464696e672074696d6528696e20626c6f636b2920616e64207265736572766520707269636521608060405234801561001057600080fd5b506040516080806111f98339810180604052608081101561003057600080fd5b81019080805190602001909291908051906020019092919080519060200190929190805190602001909291905050508360008360008082116100bd576040517f08c379a000000000000000000000000000000000000000000000000000000000815260040180806020018281038252603e8152602001806111bb603e913960400191505060405180910390fd5b336000806101000a81548173ffffffffffffffffffffffffffffffffffffffff021916908373ffffffffffffffffffffffffffffffffffffffff16021790555043600681905550826007819055508160088190555080600981905550836005819055505050505082600a8190555080600b8190555081600c8190555060055460038190555050505050611066806101556000396000f3fe6080604052600436106100915760003560e01c80636654bd2a116100595780636654bd2a14610146578063912e4a9d14610171578063a11f161a1461019c578063a3a40ea5146101a6578063f94a507d146101df57610091565b8063064c8086146100965780631998aeef146100c15780633fdd1fef146100cb5780634bb278f3146100f657806364bd70131461010d575b600080fd5b3480156100a257600080fd5b506100ab610236565b6040518082815260200191505060405180910390f35b6100c9610240565b005b3480156100d757600080fd5b506100e06104fe565b6040518082815260200191505060405180910390f35b34801561010257600080fd5b5061010b610510565b005b34801561011957600080fd5b506101226106ac565b6040518082600381111561013257fe5b60ff16815260200191505060405180910390f35b34801561015257600080fd5b5061015b610723565b6040518082815260200191505060405180910390f35b34801561017d57600080fd5b5061018661072d565b6040518082815260200191505060405180910390f35b6101a4610737565b005b3480156101b257600080fd5b506101bb6108e5565b604051808260038111156101cb57fe5b60ff16815260200191505060405180910390f35b3480156101eb57600080fd5b506101f461094e565b604051808273ffffffffffffffffffffffffffffffffffffffff1673ffffffffffffffffffffffffffffffffffffffff16815260200191505060405180910390f35b6000600854905090565b610248610977565b6000339050600034905060035481116102c9576040517f08c379a000000000000000000000000000000000000000000000000000000000815260040180806020018281038252601f8152602001807f546865726520697320616e206869676865722062696420616c7265616479210081525060200191505060405180910390fd5b600b5460035401811015610328576040517f08c379a000000000000000000000000000000000000000000000000000000000815260040180806020018281038252602b815260200180610fec602b913960400191505060405180910390fd5b600160065443030160085403600c54036008600082825401925050819055506000600a541461035a576000600a819055505b600073ffffffffffffffffffffffffffffffffffffffff16600460009054906101000a900473ffffffffffffffffffffffffffffffffffffffff1673ffffffffffffffffffffffffffffffffffffffff16146103df576103de600460009054906101000a900473ffffffffffffffffffffffffffffffffffffffff16600354610ac1565b5b8060038190555081600460006101000a81548173ffffffffffffffffffffffffffffffffffffffff021916908373ffffffffffffffffffffffffffffffffffffffff16021790555060035460016000600460009054906101000a900473ffffffffffffffffffffffffffffffffffffffff1673ffffffffffffffffffffffffffffffffffffffff1673ffffffffffffffffffffffffffffffffffffffff168152602001908152602001600020819055507f9500a4002f01d2f36258fa0c10330ac3bb6a341eed6797ec22bc40c0ad6533588282604051808373ffffffffffffffffffffffffffffffffffffffff1673ffffffffffffffffffffffffffffffffffffffff1681526020018281526020019250505060405180910390a15050565b60006009546008546007540101905090565b610518610cfc565b600073ffffffffffffffffffffffffffffffffffffffff16600460009054906101000a900473ffffffffffffffffffffffffffffffffffffffff1673ffffffffffffffffffffffffffffffffffffffff161415801561057a5750600060035414155b1561067d576000809054906101000a900473ffffffffffffffffffffffffffffffffffffffff1673ffffffffffffffffffffffffffffffffffffffff166108fc6003549081150290604051600060405180830381858888f193505050501580156105e8573d6000803e3d6000fd5b507fd67ac51f96ac22ee5b00a109f663d8ac038c7181b7c55c12c3490b8d9bd8d709600460009054906101000a900473ffffffffffffffffffffffffffffffffffffffff16600354604051808373ffffffffffffffffffffffffffffffffffffffff1673ffffffffffffffffffffffffffffffffffffffff1681526020018281526020019250505060405180910390a16106aa565b7f7cca9a832bf654537bcd8096e81323885d7ee298515dbc0c171173db7e6b047060405160405180910390a15b565b60007ff302f1a25d304bd7348ee6fc1e2090f79ff9c7c809558b88c7876b528b66dd486040518080602001828103825260048152602001807f776169740000000000000000000000000000000000000000000000000000000081525060200191505060405180910390a161071e6108e5565b905090565b6000600954905090565b6000600754905090565b61073f610977565b6000600a54141561079b576040517f08c379a0000000000000000000000000000000000000000000000000000000008152600401808060200182810382526030815260200180610f386030913960400191505060405180910390fd5b6000349050600a548110156107fb576040517f08c379a0000000000000000000000000000000000000000000000000000000008152600401808060200182810382526025815260200180610fc76025913960400191505060405180910390fd5b8060038190555033600460006101000a81548173ffffffffffffffffffffffffffffffffffffffff021916908373ffffffffffffffffffffffffffffffffffffffff160217905550600060078190555060006008819055507f13186fd4320e30fe3f7d92d7f8e4c4661c610a89696aa8d3f2fd043efd7c2cad600460009054906101000a900473ffffffffffffffffffffffffffffffffffffffff16600354604051808373ffffffffffffffffffffffffffffffffffffffff1673ffffffffffffffffffffffffffffffffffffffff1681526020018281526020019250505060405180910390a150565b60008043905080600160075460065401031061090557600091505061094b565b8060016008546007546006540101031061092357600191505061094b565b806001600954600854600754600654010101031061094557600291505061094b565b60039150505b90565b60008060009054906101000a900473ffffffffffffffffffffffffffffffffffffffff16905090565b60006109816108e5565b90506000600381111561099057fe5b81600381111561099c57fe5b1415610a10576040517f08c379a000000000000000000000000000000000000000000000000000000000815260040180806020018281038252601b8152602001807f4974206973206e6f742062696464696e672074696d652079657421000000000081525060200191505060405180910390fd5b60026003811115610a1d57fe5b816003811115610a2957fe5b141580610a4c5750600380811115610a3d57fe5b816003811115610a4957fe5b14155b610abe576040517f08c379a00000000000000000000000000000000000000000000000000000000081526004018080602001828103825260168152602001807f41756374696f6e20616c726561647920656e646564210000000000000000000081525060200191505060405180910390fd5b50565b60008111610b1a576040517f08c379a00000000000000000000000000000000000000000000000000000000081526004018080602001828103825260248152602001806110176024913960400191505060405180910390fd5b600160008373ffffffffffffffffffffffffffffffffffffffff1673ffffffffffffffffffffffffffffffffffffffff16815260200190815260200160002054811115610bb2576040517f08c379a0000000000000000000000000000000000000000000000000000000008152600401808060200182810382526023815260200180610f686023913960400191505060405180910390fd5b6000600160008473ffffffffffffffffffffffffffffffffffffffff1673ffffffffffffffffffffffffffffffffffffffff1681526020019081526020016000205490506000811115610cf7576000600160008573ffffffffffffffffffffffffffffffffffffffff1673ffffffffffffffffffffffffffffffffffffffff168152602001908152602001600020819055508273ffffffffffffffffffffffffffffffffffffffff166108fc839081150290604051600060405180830381858888f19350505050158015610c8a573d6000803e3d6000fd5b507fcb1ed30c8a84603cc9cd35d8ffd0eb9298b137e6ade703816a297932f375f51d8383604051808373ffffffffffffffffffffffffffffffffffffffff1673ffffffffffffffffffffffffffffffffffffffff1681526020018281526020019250505060405180910390a15b505050565b600380811115610d0857fe5b610d106108e5565b6003811115610d1b57fe5b14610d8e576040517f08c379a00000000000000000000000000000000000000000000000000000000081526004018080602001828103825260188152602001807f41756374696f6e206861736e277420656e64656420796574000000000000000081525060200191505060405180910390fd5b600260009054906101000a900460ff1615610df4576040517f08c379a000000000000000000000000000000000000000000000000000000000815260040180806020018281038252603c815260200180610f8b603c913960400191505060405180910390fd5b600460009054906101000a900473ffffffffffffffffffffffffffffffffffffffff1673ffffffffffffffffffffffffffffffffffffffff163373ffffffffffffffffffffffffffffffffffffffff161480610e9c57506000809054906101000a900473ffffffffffffffffffffffffffffffffffffffff1673ffffffffffffffffffffffffffffffffffffffff163373ffffffffffffffffffffffffffffffffffffffff16145b610ef1576040517f08c379a0000000000000000000000000000000000000000000000000000000008152600401808060200182810382526029815260200180610f0f6029913960400191505060405180910390fd5b6001600260006101000a81548160ff02191690831515021790555056fe596f7520617265206e6f74207468652077696e6e6572206f72207468652061756374696f6e656572214e4f20627579206f7574207072696365206f7220736f6d656f6e6520656c736520616c72656164792062696464656421796f7520646f6e2774206861766520746f20726566756e642074686174206d7563682141756374696f6e2068617320656e64656420616e6420746865207061796d656e742068617320616c7265616479206265656e2066696e616c697a6564596f757220616d6f756e74206973206e6f7420656e6f75676820746f20627579206f757421596f75206861766520746f207061792061206d696e696d756d20696e6372656d656e7420616d6f756e7421616d6f756e74206e6565647320746f20626520686967686572207468616e207a65726f21a165627a7a72305820dfd053c4a8913cdb28a77e54b1fd0a960e7ecbb03418f5e3a5d2a7c59d7f69ef0029596f75206d7573742073706563696679207468652062696464696e672074696d6528696e20626c6f636b2920616e64207265736572766520707269636521a165627a7a7230582087a69edb0bbcbb8587e9df79642b71793cac638828022e1fc982cd9346f90dde0029",
  "source": "pragma solidity ^0.5.1;\nimport \"./englishAuction.sol\";\nimport \"./vickeryAuction.sol\";\n\n//factory contract: used to deploy new smart auctions\n//NOTE: remix's default gas limit is not enough (at least 4000000 gas needed)\ncontract smartAuctionFactory{\n    //mapping(string => address) auctions; //keep of all the contracts deployed\n    address[] public auctions;\n    address owner;\n    \n    event newEnglishAuctionEvent(address addr); //notify the deployment of a new english auction\n    event newVickeryAuctionEvent(address addr); //notify the deployment of a new vickery auction\n\n    constructor() public {\n        owner = msg.sender;\n    }\n    \n    function deployEnglishAuction(uint _reservePrice, uint _buyOutPrice, uint _unchallegedLength, uint _increment) public returns (address) {\n        englishAuction auction = new englishAuction(_reservePrice, _buyOutPrice, _unchallegedLength, _increment);\n        address addr = address(auction);\n\n        auctions.push(addr);\n        emit newEnglishAuctionEvent(addr);\n\n        return addr;\n    }\n    \n    function deployVickeryAuction(uint _reservePrice, uint _deposit, uint _bidCommitLength, uint _bidWithdrawLength, uint _bidOpeningLength) public returns (address) {\n        vickeryAuction auction = new vickeryAuction(_reservePrice, _deposit, _bidCommitLength, _bidWithdrawLength, _bidOpeningLength);\n        address addr = address(auction);\n\n        auctions.push(addr);\n        emit newVickeryAuctionEvent(addr);\n\n        return addr;\n    }\n\n    function getAuctions() public view returns(address[] memory){\n        return auctions;\n    }\n}",
  "sourcePath": "/home/remo/Dropbox/Programming/html-js/smartAuction/dApp/contracts/smartAuctionFactory.sol",
  "compiler": {
    "name": "solc",
    "version": "0.5.8+commit.23d335f2.Emscripten.clang"
  },
  "schemaVersion": "3.0.11",
  "updatedAt": "2019-07-02T20:01:48.694Z",
  "devdoc": {
    "methods": {}
  },
  "userdoc": {
    "methods": {}
  }
}