{
  "contractName": "vickeryAuction",
  "abi": [
    {
      "constant": true,
      "inputs": [],
      "name": "getBiddingLength",
      "outputs": [
        {
          "name": "",
          "type": "uint256"
        }
      ],
      "payable": false,
      "stateMutability": "view",
      "type": "function"
    },
    {
      "constant": true,
      "inputs": [],
      "name": "getAuctionLength",
      "outputs": [
        {
          "name": "",
          "type": "uint256"
        }
      ],
      "payable": false,
      "stateMutability": "view",
      "type": "function"
    },
    {
      "constant": false,
      "inputs": [],
      "name": "wait",
      "outputs": [
        {
          "name": "",
          "type": "uint8"
        }
      ],
      "payable": false,
      "stateMutability": "nonpayable",
      "type": "function"
    },
    {
      "constant": true,
      "inputs": [],
      "name": "getPostBiddingLength",
      "outputs": [
        {
          "name": "",
          "type": "uint256"
        }
      ],
      "payable": false,
      "stateMutability": "view",
      "type": "function"
    },
    {
      "constant": true,
      "inputs": [],
      "name": "getPreBiddingLength",
      "outputs": [
        {
          "name": "",
          "type": "uint256"
        }
      ],
      "payable": false,
      "stateMutability": "view",
      "type": "function"
    },
    {
      "constant": true,
      "inputs": [],
      "name": "getCurrentPhase",
      "outputs": [
        {
          "name": "",
          "type": "uint8"
        }
      ],
      "payable": false,
      "stateMutability": "view",
      "type": "function"
    },
    {
      "constant": true,
      "inputs": [],
      "name": "getAuctioneer",
      "outputs": [
        {
          "name": "",
          "type": "address"
        }
      ],
      "payable": false,
      "stateMutability": "view",
      "type": "function"
    },
    {
      "inputs": [
        {
          "name": "_reservePrice",
          "type": "uint256"
        },
        {
          "name": "_deposit",
          "type": "uint256"
        },
        {
          "name": "_bidCommitLength",
          "type": "uint256"
        },
        {
          "name": "_bidWithdrawLength",
          "type": "uint256"
        },
        {
          "name": "_bidOpeningLength",
          "type": "uint256"
        }
      ],
      "payable": false,
      "stateMutability": "nonpayable",
      "type": "constructor"
    },
    {
      "anonymous": false,
      "inputs": [
        {
          "indexed": false,
          "name": "str",
          "type": "string"
        }
      ],
      "name": "logEvent",
      "type": "event"
    },
    {
      "anonymous": false,
      "inputs": [
        {
          "indexed": false,
          "name": "bidder",
          "type": "address"
        },
        {
          "indexed": false,
          "name": "amount",
          "type": "uint256"
        }
      ],
      "name": "newHighestBidEvent",
      "type": "event"
    },
    {
      "anonymous": false,
      "inputs": [
        {
          "indexed": false,
          "name": "bidder",
          "type": "address"
        },
        {
          "indexed": false,
          "name": "amount",
          "type": "uint256"
        }
      ],
      "name": "finalizeEvent",
      "type": "event"
    },
    {
      "anonymous": false,
      "inputs": [
        {
          "indexed": false,
          "name": "bidder",
          "type": "address"
        },
        {
          "indexed": false,
          "name": "amount",
          "type": "uint256"
        }
      ],
      "name": "refundEvent",
      "type": "event"
    },
    {
      "anonymous": false,
      "inputs": [],
      "name": "noWinner",
      "type": "event"
    },
    {
      "constant": false,
      "inputs": [
        {
          "name": "hash",
          "type": "bytes32"
        }
      ],
      "name": "bid",
      "outputs": [],
      "payable": true,
      "stateMutability": "payable",
      "type": "function"
    },
    {
      "constant": false,
      "inputs": [
        {
          "name": "nonce",
          "type": "uint32"
        },
        {
          "name": "bidAmount",
          "type": "uint256"
        }
      ],
      "name": "simple_bid",
      "outputs": [],
      "payable": true,
      "stateMutability": "payable",
      "type": "function"
    },
    {
      "constant": false,
      "inputs": [],
      "name": "withdraw",
      "outputs": [],
      "payable": false,
      "stateMutability": "nonpayable",
      "type": "function"
    },
    {
      "constant": false,
      "inputs": [
        {
          "name": "nonce",
          "type": "uint32"
        }
      ],
      "name": "reveal",
      "outputs": [],
      "payable": true,
      "stateMutability": "payable",
      "type": "function"
    },
    {
      "constant": false,
      "inputs": [],
      "name": "finalize",
      "outputs": [],
      "payable": false,
      "stateMutability": "nonpayable",
      "type": "function"
    }
  ],
  "bytecode": "0x608060405234801561001057600080fd5b5060405160a0806117c8833981018060405260a081101561003057600080fd5b81019080805190602001909291908051906020019092919080519060200190929190805190602001909291908051906020019092919050505084600083850183600082116100c9576040517f08c379a000000000000000000000000000000000000000000000000000000000815260040180806020018281038252603e81526020018061178a603e913960400191505060405180910390fd5b336000806101000a81548173ffffffffffffffffffffffffffffffffffffffff021916908373ffffffffffffffffffffffffffffffffffffffff16021790555043600681905550826007819055508160088190555080600981905550836005819055505050505083600a8190555082600b8190555081600c8190555080600d81905550505050505061162a806101606000396000f3fe6080604052600436106100a75760003560e01c80636654bd2a116100645780636654bd2a146101a7578063912e4a9d146101d2578063957bb1e0146101fd578063a3a40ea51461022b578063c72efcf714610264578063f94a507d14610298576100a7565b8063064c8086146100ac578063395e707f146100d75780633ccfd60b146101155780633fdd1fef1461012c5780634bb278f31461015757806364bd70131461016e575b600080fd5b3480156100b857600080fd5b506100c16102ef565b6040518082815260200191505060405180910390f35b610113600480360360408110156100ed57600080fd5b81019080803563ffffffff169060200190929190803590602001909291905050506102f9565b005b34801561012157600080fd5b5061012a610340565b005b34801561013857600080fd5b506101416104dc565b6040518082815260200191505060405180910390f35b34801561016357600080fd5b5061016c6104ee565b005b34801561017a57600080fd5b5061018361077a565b6040518082600381111561019357fe5b60ff16815260200191505060405180910390f35b3480156101b357600080fd5b506101bc6107f1565b6040518082815260200191505060405180910390f35b3480156101de57600080fd5b506101e76107fb565b6040518082815260200191505060405180910390f35b6102296004803603602081101561021357600080fd5b8101908080359060200190929190505050610805565b005b34801561023757600080fd5b50610240610a1c565b6040518082600381111561025057fe5b60ff16815260200191505060405180910390f35b6102966004803603602081101561027a57600080fd5b81019080803563ffffffff169060200190929190505050610a85565b005b3480156102a457600080fd5b506102ad610ef8565b604051808273ffffffffffffffffffffffffffffffffffffffff1673ffffffffffffffffffffffffffffffffffffffff16815260200191505060405180910390f35b6000600854905090565b61033c8282604051602001808363ffffffff1663ffffffff1681526020018281526020019250505060405160208183030381529060405280519060200120610805565b5050565b610348610f21565b436001600b54600754600654010103106103ad576040517f08c379a00000000000000000000000000000000000000000000000000000000081526004018080602001828103825260218152602001806115ba6021913960400191505060405180910390fd5b436001600c54600b54600754600654010101031015610434576040517f08c379a00000000000000000000000000000000000000000000000000000000081526004018080602001828103825260208152602001807f4974206973206e6f742077697468647261772074696d6520616e796d6f72652181525060200191505060405180910390fd5b600033905060006002600160008473ffffffffffffffffffffffffffffffffffffffff1673ffffffffffffffffffffffffffffffffffffffff168152602001908152602001600020548161048457fe5b0490506000801b600f60008473ffffffffffffffffffffffffffffffffffffffff1673ffffffffffffffffffffffffffffffffffffffff168152602001908152602001600020819055506104d8828261106b565b5050565b60006009546008546007540101905090565b6104f66112a6565b60055460035410610712576000600e54141561051657600554600e819055505b6000809054906101000a900473ffffffffffffffffffffffffffffffffffffffff1673ffffffffffffffffffffffffffffffffffffffff166108fc600e549081150290604051600060405180830381858888f1935050505015801561057f573d6000803e3d6000fd5b50600e5460016000600460009054906101000a900473ffffffffffffffffffffffffffffffffffffffff1673ffffffffffffffffffffffffffffffffffffffff1673ffffffffffffffffffffffffffffffffffffffff1681526020019081526020016000206000828254039250508190555061067e600460009054906101000a900473ffffffffffffffffffffffffffffffffffffffff1660016000600460009054906101000a900473ffffffffffffffffffffffffffffffffffffffff1673ffffffffffffffffffffffffffffffffffffffff1673ffffffffffffffffffffffffffffffffffffffff1681526020019081526020016000205461106b565b7fd67ac51f96ac22ee5b00a109f663d8ac038c7181b7c55c12c3490b8d9bd8d709600460009054906101000a900473ffffffffffffffffffffffffffffffffffffffff16600e54604051808373ffffffffffffffffffffffffffffffffffffffff1673ffffffffffffffffffffffffffffffffffffffff1681526020018281526020019250505060405180910390a1610778565b7fbc7316f2052ef766b3a017639f5bc6e67f01a3ae6feee6c0433843eb307b8d3b60405160405180910390a160006003541461077757610776600460009054906101000a900473ffffffffffffffffffffffffffffffffffffffff1660035461106b565b5b5b565b60007ff302f1a25d304bd7348ee6fc1e2090f79ff9c7c809558b88c7876b528b66dd486040518080602001828103825260048152602001807f776169740000000000000000000000000000000000000000000000000000000081525060200191505060405180910390a16107ec610a1c565b905090565b6000600954905090565b6000600754905090565b61080d610f21565b436001600b546007546006540101031015610873576040517f08c379a00000000000000000000000000000000000000000000000000000000081526004018080602001828103825260278152602001806115936027913960400191505060405180910390fd5b600034905060003390506000801b600f60008373ffffffffffffffffffffffffffffffffffffffff1673ffffffffffffffffffffffffffffffffffffffff1681526020019081526020016000205414610917576040517f08c379a00000000000000000000000000000000000000000000000000000000081526004018080602001828103825260248152602001806115056024913960400191505060405180910390fd5b600a5482101561098f576040517f08c379a000000000000000000000000000000000000000000000000000000000815260040180806020018281038252601d8152602001807f4465706f73697420616d6f756e74206973206e6f7420656e6f7567682100000081525060200191505060405180910390fd5b81600160008373ffffffffffffffffffffffffffffffffffffffff1673ffffffffffffffffffffffffffffffffffffffff1681526020019081526020016000208190555082600f60008373ffffffffffffffffffffffffffffffffffffffff1673ffffffffffffffffffffffffffffffffffffffff16815260200190815260200160002081905550505050565b600080439050806001600754600654010310610a3c576000915050610a82565b80600160085460075460065401010310610a5a576001915050610a82565b8060016009546008546007546006540101010310610a7c576002915050610a82565b60039150505b90565b60026003811115610a9257fe5b610a9a610a1c565b6003811115610aa557fe5b14610b18576040517f08c379a00000000000000000000000000000000000000000000000000000000081526004018080602001828103825260198152602001807f4974206973206e6f742072657665616c2074696d65207965740000000000000081525060200191505060405180910390fd5b6000801b600f60003373ffffffffffffffffffffffffffffffffffffffff1673ffffffffffffffffffffffffffffffffffffffff168152602001908152602001600020541415610bd0576040517f08c379a000000000000000000000000000000000000000000000000000000000815260040180806020018281038252601f8152602001807f596f75206469646e27742062696420696e20746869732061756374696f6e210081525060200191505060405180910390fd5b6000349050600033905060008383604051602001808363ffffffff1663ffffffff16815260200182815260200192505050604051602081830303815290604052805190602001209050600f60008373ffffffffffffffffffffffffffffffffffffffff1673ffffffffffffffffffffffffffffffffffffffff168152602001908152602001600020548114610cb0576040517f08c379a000000000000000000000000000000000000000000000000000000000815260040180806020018281038252602e815260200180611529602e913960400191505060405180910390fd5b610cf982600160008573ffffffffffffffffffffffffffffffffffffffff1673ffffffffffffffffffffffffffffffffffffffff1681526020019081526020016000205461106b565b82600160008473ffffffffffffffffffffffffffffffffffffffff1673ffffffffffffffffffffffffffffffffffffffff16815260200190815260200160002060008282540192505081905550600354831115610e9657600073ffffffffffffffffffffffffffffffffffffffff16600460009054906101000a900473ffffffffffffffffffffffffffffffffffffffff1673ffffffffffffffffffffffffffffffffffffffff1614610dde57610dd4600460009054906101000a900473ffffffffffffffffffffffffffffffffffffffff1660035461106b565b600354600e819055505b8260038190555081600460006101000a81548173ffffffffffffffffffffffffffffffffffffffff021916908373ffffffffffffffffffffffffffffffffffffffff1602179055507f9500a4002f01d2f36258fa0c10330ac3bb6a341eed6797ec22bc40c0ad6533588284604051808373ffffffffffffffffffffffffffffffffffffffff1673ffffffffffffffffffffffffffffffffffffffff1681526020018281526020019250505060405180910390a1610ef2565b600e54831115610ea85782600e819055505b610ef182600160008573ffffffffffffffffffffffffffffffffffffffff1673ffffffffffffffffffffffffffffffffffffffff1681526020019081526020016000205461106b565b5b50505050565b60008060009054906101000a900473ffffffffffffffffffffffffffffffffffffffff16905090565b6000610f2b610a1c565b905060006003811115610f3a57fe5b816003811115610f4657fe5b1415610fba576040517f08c379a000000000000000000000000000000000000000000000000000000000815260040180806020018281038252601b8152602001807f4974206973206e6f742062696464696e672074696d652079657421000000000081525060200191505060405180910390fd5b60026003811115610fc757fe5b816003811115610fd357fe5b141580610ff65750600380811115610fe757fe5b816003811115610ff357fe5b14155b611068576040517f08c379a00000000000000000000000000000000000000000000000000000000081526004018080602001828103825260168152602001807f41756374696f6e20616c726561647920656e646564210000000000000000000081525060200191505060405180910390fd5b50565b600081116110c4576040517f08c379a00000000000000000000000000000000000000000000000000000000081526004018080602001828103825260248152602001806115db6024913960400191505060405180910390fd5b600160008373ffffffffffffffffffffffffffffffffffffffff1673ffffffffffffffffffffffffffffffffffffffff1681526020019081526020016000205481111561115c576040517f08c379a00000000000000000000000000000000000000000000000000000000081526004018080602001828103825260238152602001806114e26023913960400191505060405180910390fd5b6000600160008473ffffffffffffffffffffffffffffffffffffffff1673ffffffffffffffffffffffffffffffffffffffff16815260200190815260200160002054905060008111156112a1576000600160008573ffffffffffffffffffffffffffffffffffffffff1673ffffffffffffffffffffffffffffffffffffffff168152602001908152602001600020819055508273ffffffffffffffffffffffffffffffffffffffff166108fc839081150290604051600060405180830381858888f19350505050158015611234573d6000803e3d6000fd5b507fcb1ed30c8a84603cc9cd35d8ffd0eb9298b137e6ade703816a297932f375f51d8383604051808373ffffffffffffffffffffffffffffffffffffffff1673ffffffffffffffffffffffffffffffffffffffff1681526020018281526020019250505060405180910390a15b505050565b6003808111156112b257fe5b6112ba610a1c565b60038111156112c557fe5b14611338576040517f08c379a00000000000000000000000000000000000000000000000000000000081526004018080602001828103825260188152602001807f41756374696f6e206861736e277420656e64656420796574000000000000000081525060200191505060405180910390fd5b600260009054906101000a900460ff161561139e576040517f08c379a000000000000000000000000000000000000000000000000000000000815260040180806020018281038252603c815260200180611557603c913960400191505060405180910390fd5b600460009054906101000a900473ffffffffffffffffffffffffffffffffffffffff1673ffffffffffffffffffffffffffffffffffffffff163373ffffffffffffffffffffffffffffffffffffffff16148061144657506000809054906101000a900473ffffffffffffffffffffffffffffffffffffffff1673ffffffffffffffffffffffffffffffffffffffff163373ffffffffffffffffffffffffffffffffffffffff16145b61149b576040517f08c379a00000000000000000000000000000000000000000000000000000000081526004018080602001828103825260298152602001806114b96029913960400191505060405180910390fd5b6001600260006101000a81548160ff02191690831515021790555056fe596f7520617265206e6f74207468652077696e6e6572206f72207468652061756374696f6e65657221796f7520646f6e2774206861766520746f20726566756e642074686174206d75636821596f75206861766520616c7265616479206d616465206120636f6d6d6974746d656e742154686520616d6f756e7420646f65736e2774206d6174636820776974682074686520636f6d6d6974746d656e742141756374696f6e2068617320656e64656420616e6420746865207061796d656e742068617320616c7265616479206265656e2066696e616c697a65644974206973206e6f742062696420636f6d6d6974746d656e742074696d6520616e796d6f7265214974206973207374696c6c2062696420636f6d6d6974746d656e742074696d6521616d6f756e74206e6565647320746f20626520686967686572207468616e207a65726f21a165627a7a7230582065b5b41bcaa00a2de460b4a990fca9340640cc0e5ce63edb7e306767cb0598150029596f75206d7573742073706563696679207468652062696464696e672074696d6528696e20626c6f636b2920616e64207265736572766520707269636521",
  "source": "pragma solidity ^0.5.1;\nimport \"./smartAuction.sol\";\n\n/* \npre bidding phase: grace period, length = 30\nbidding phase: bid commit and withdraw\npost bidding phase: bid opening\nend phase: finalize\n*/\ncontract vickeryAuction is smartAuction{\n    uint deposit; //deposit requirement for committing a bid\n    uint bidCommitLength; //block time length of the subphase bid committment, on which bidders submit a commitment to their bid (PART OF BIDDING TIME)\n    uint bidWithdrawLength; //block time length of the subphase bid withdrawal, on which bidders can withdraw their bids, by paying a fee (PART OF BIDDING TIME)\n    uint bidOpeningLength; //block time length of the opening phase, on which all bidders should reveal their bids (IT IS THE POST BIDDING PHASE RENAMED)\n    \n    uint price; //amount that the winner has to pay (the second highest bid)\n    mapping(address => bytes32) commits; //keep track of the hashed committments\n    \n    constructor(uint _reservePrice, uint _deposit, uint _bidCommitLength, uint _bidWithdrawLength, uint _bidOpeningLength) \n                    smartAuction(_reservePrice, 0, _bidCommitLength + _bidWithdrawLength, _bidOpeningLength) public {\n        deposit = _deposit;\n        \n        bidCommitLength = _bidCommitLength;\n        bidWithdrawLength = _bidWithdrawLength;\n        bidOpeningLength = _bidOpeningLength;\n    }\n    \n    //commit using an hashed message to ensure the bid's secrecy\n    function bid(bytes32 hash) payable public{\n        super.bidConditions();\n        require((creationBlock + preBiddingLength + bidCommitLength) - 1 >= block.number, \"It is not bid committment time anymore!\");\n        \n        uint depositAmount = msg.value;\n        address bidder = msg.sender;\n        require(commits[bidder] == 0, \"You have already made a committment!\");\n        require(depositAmount >= deposit, \"Deposit amount is not enough!\");\n        \n        bidders[bidder] = depositAmount; //saving the deposit requirement\n        commits[bidder] = hash; //saving the hashed committment\n    }\n    \n    //Handy method used to generate and send hashed committment\n    function simple_bid(uint32 nonce, uint bidAmount) payable public{\n        bid(keccak256(abi.encode(nonce, bidAmount)));\n    }\n    \n    function withdraw() public {\n        super.bidConditions(); //Because in this case the withdraw require the same conditions of bids!\n        require((creationBlock + preBiddingLength + bidCommitLength) - 1 < block.number, \"It is still bid committment time!\");\n        require((creationBlock + preBiddingLength + bidCommitLength + bidWithdrawLength) - 1 >= block.number, \"It is not withdraw time anymore!\");\n        \n        address payable bidder = msg.sender;\n        uint refundAmount = bidders[bidder]/2; //they pay half deposit as a fee\n        commits[bidder] = bytes32(0); //remove committment\n        \n        refundTo(bidder, refundAmount);\n    }\n    \n    function reveal(uint32 nonce) payable public{\n        require(getCurrentPhase() == phase.postBidding, \"It is not reveal time yet\");\n        require(commits[msg.sender] != bytes32(0), \"You didn't bid in this auction!\");\n        \n        uint amount = msg.value;\n        address payable bidder = msg.sender;\n        bytes32 hash = keccak256(abi.encode(nonce, amount)); //sha3 is deprecated!\n        require(hash == commits[bidder], \"The amount doesn't match with the committment!\");\n        \n        refundTo(bidder, bidders[bidder]); //refund full deposit\n        bidders[bidder] += amount; //add bid amount\n        \n        //dinamically set the winner and the price\n        if(amount > winningBid){\n            \n            if(winningBidder != address(0)){ //check if there was already a winner: if so, refund him\n                refundTo(winningBidder, winningBid); //refund bid amount\n                price = winningBid;\n            }\n            \n            winningBid = amount;\n            winningBidder = bidder;\n            emit newHighestBidEvent(bidder, amount);\n        }\n        else{\n            if(amount > price){ //check if your bid will be the final price\n                price = amount;\n            }\n            \n            refundTo(bidder, bidders[bidder]); //refund bid amount\n        }\n    }\n    \n    //give back the remaining to the winning bidder\n    function finalize() public{\n        super.finalizeConditions();\n        //if you are here, no re-entrancy problem, because finalized has been set to true!\n        \n        if(winningBid >= reservePrice){\n            if(price == 0){ //check if there was one bidder only\n                price = reservePrice;\n            }\n            \n            auctioneer.transfer(price);\n            \n            bidders[winningBidder] -= price;\n            \n            refundTo(winningBidder, bidders[winningBidder]);\n            emit finalizeEvent(winningBidder, price);\n        }\n        else{\n            emit noWinner();\n            if(winningBid != 0){\n                refundTo(winningBidder, winningBid);\n            }\n        }\n    }\n}\n",
  "sourcePath": "/home/remo/Dropbox/Programming/html & js/smartAuction/dApp/contracts/vickeryAuction.sol",
  "compiler": {
    "name": "solc",
    "version": "0.5.8+commit.23d335f2.Emscripten.clang"
  },
  "schemaVersion": "3.0.11",
  "updatedAt": "2019-06-21T14:19:37.862Z",
  "devdoc": {
    "methods": {}
  },
  "userdoc": {
    "methods": {}
  }
}